:10000000EEC011C669C606C105C104C1AEC502C1B4
:1000100001C100C1FFC0FEC0FDC0FCC0FBC0FAC0F2
:10002000F9C0F8C0F7C07CC784C78BC792C799C70F
:100030009CC7A6C70111133337777FFF7F7737330C
:100040002322022226666EEEEFFF7F775755454446
:1000500004444CCCCDDDDFFFEFEECECC8C8808889D
:1000600089999BBBBFFF7F7737331311EEDDBB77D9
:100070001248248241188412284281144824418263
:1000800021184128128124481841822448128442B0
:10009000811228411112222444488881D007A00FE0
:1000A000701705040302010203040A08060402048F
:1000B00006080F0C09060306090C14100C080408A6
:1000C0000C1096000201BC01FD022505D9080406AA
:1000D000090E140406090E140406090E140000018A
:1000E00000010002000200020003000300030003FD
:1000F00000030004000400040004000400040005E0
:1001000000050005000500060006000600060007C1
:1001100000070007000700080008000800090009A0
:10012000000A000A000A000B000B000C000C000D76
:10013000000E000E000F000F001000110012001240
:100140000013001400150016001700180019001AFB
:10015000001B001C001D001E0020002100230024A5
:10016000002600270029002B002D002F003100332E
:1001700000350037003A003C003F0042004500488F
:10018000004B004E005100550059005D00610065B4
:100190000069006E00730078007D00820088008E88
:1001A0000094009B00A100A800B000B700BF00C8E9
:1001B00000D100DA00E300ED00F70002010D0119A3
:1001C000012501320140014E015C016B017B018C74
:1001D000019D01AF01C201D501EA01FF0100112417
:1001E0001FBECFE5D4E0DEBFCDBF10E0A0E6B0E09B
:1001F000E8ECF1E102C005900D92A836B107D9F7FD
:1002000020E0A8E6B0E001C01D92A239B207E1F7F4
:100210004ED6D8C7F5CE87B38F6187BBC49881B35C
:10022000806E81BB95988C9A9498C59A82B38360AE
:1002300082BB85B38C6385BB81B38C6081BB82B389
:100240008C6082BBA09885B3836085BB85B78A60CC
:1002500085BF85B78A7F85BF8BB7806C8BBF0895BC
:1002600081E08EBD89B7806189BF08958CE081BD32
:1002700008959091800091FF68C0E0E8F0E09081DF
:100280009D7F908390917100973020F49F5F9093B1
:10029000710002C010927100E0917100F0E0EC5624
:1002A000FF4FE491E0FF02C0959A01C09598E0915C
:1002B0007100F0E0EC56FF4FE491E1FF02C0969A26
:1002C00001C09698E0917100F0E0EC56FF4FE49188
:1002D000E2FF02C0979A01C09798E0917100F0E0A8
:1002E000EC56FF4FE491E3FF02C0C09A01C0C098F2
:1002F000E0917100F0E0EC56FF4FE491E4FF02C0A2
:10030000C19A01C0C198E0917100F0E0EC56FF4F36
:10031000E491E5FF02C0C29A01C0C298E091710069
:10032000F0E0EC56FF4FE491E6FF02C0C39A01C033
:10033000C398E0917100F0E0EC56FF4FE491EE239A
:1003400014F4C49A01C0C498EBD60895909180002B
:1003500091FF68C0E0E8F0E090819D7F90839091EC
:100360007000933220F49F5F9093700002C010924F
:100370007000E0917000F0E0E059FF4FE491E0FF81
:1003800002C0959A01C09598E0917000F0E0E059A4
:10039000FF4FE491E1FF02C0969A01C09698E09168
:1003A0007000F0E0E059FF4FE491E2FF02C0979A3D
:1003B00001C09798E0917000F0E0E059FF4FE491A0
:1003C000E3FF02C0C09A01C0C098E0917000F0E065
:1003D000E059FF4FE491E4FF02C0C19A01C0C19807
:1003E000E0917000F0E0E059FF4FE491E5FF02C0BA
:1003F000C29A01C0C298E0917000F0E0E059FF4F4E
:10040000E491E6FF02C0C39A01C0C398E091700076
:10041000F0E0E059FF4FE491EE2314F4C49A01C0D8
:10042000C4987ED608959091800091FF68C0E0E85E
:10043000F0E090819D7F908390916F00933020F445
:100440009F5F90936F0002C010926F00E0916F0069
:10045000F0E0E459FF4FE491E0FF02C0959A01C03B
:100460009598E0916F00F0E0E459FF4FE491E1FFCF
:1004700002C0969A01C09698E0916F00F0E0E459AE
:10048000FF4FE491E2FF02C0979A01C09798E09174
:100490006F00F0E0E459FF4FE491E3FF02C0C09A1F
:1004A00001C0C098E0916F00F0E0E459FF4FE49183
:1004B000E4FF02C0C19A01C0C198E0916F00F0E072
:1004C000E459FF4FE491E5FF02C0C29A01C0C2980F
:1004D000E0916F00F0E0E459FF4FE491E6FF02C0C5
:1004E000C39A01C0C398E0916F00F0E0E459FF4F58
:1004F000E491EE2314F4C49A01C0C49811D608956F
:100500009091800091FFBBC0E0E8F0E090819D7F7A
:10051000908390916E00973028F420916D002F5FAA
:1005200020936D0029EF290F273028F420916D00CA
:10053000215020936D0022EF290F273028F42091BD
:100540006D002F5F20936D002BEE290F273028F4CC
:1005500020916D00215020936D0024EE290F27304B
:1005600028F420916D002F5F20936D002DED290F51
:10057000273028F420916D00215020936D0026ED46
:10058000290F273028F420916D002F5F20936D00F4
:10059000913328F020916D00215020936D00973306
:1005A00020F49F5F90936E0002C010926E00E09165
:1005B0006E00F0E0EC5CFF4FE491E0FF02C0959A22
:1005C00001C09598E0916E00F0E0EC5CFF4FE49183
:1005D000E1FF02C0969A01C09698E0916E00F0E0AB
:1005E000EC5CFF4FE491E2FF02C0979A01C097983C
:1005F000E0916E00F0E0EC5CFF4FE491E3FF02C09D
:10060000C09A01C0C098E0916E00F0E0EC5CFF4F32
:10061000E491E4FF02C0C19A01C0C198E0916E006C
:10062000F0E0EC5CFF4FE491E5FF02C0C29A01C02C
:10063000C298E0916E00F0E0EC5CFF4FE491E6FFC1
:1006400002C0C39A01C0C398E0916E00F0E0EC5C78
:10065000FF4FE491EE2314F4C49A01C0C498E82F2C
:10066000F0E0EE0FFF1FEE0FFF1FEE0FFF1F809158
:100670006D00E80FF11DEE55FF4F849151D508959F
:100680002091800020FFBAC1E0E8F0E020812E7FB9
:10069000208320916C00211142C020916B00222305
:1006A00019F0215020936B0020916A002F3720F41D
:1006B0002F5F20936A0003C021E020936C00F89420
:1006C000E0916B00F0E0EE0FFF1F9F0123523F4FC0
:1006D000F90145915491A2E8B0E011965C934E93D4
:1006E000F9012591349119963C932E931897E09136
:1006F0006A00F0E0EE0FFF1F9F0123523F4FF90108
:10070000459154911B965C934E931A97F90125914C
:10071000349113963C932E93129778946EC12130A6
:1007200031F520916A002B3020F0215020936A008F
:1007300003C022E020936C00F894E0916A00F0E09E
:10074000EE0FFF1F9F0123523F4FF9014591549136
:10075000A2E8B0E01B965C934E931A97F90125919D
:10076000349113963C932E931297789446C122307D
:1007700009F043C020916A00222319F021502093F0
:100780006A00209169002F3720F42F5F20936900C1
:1007900003C023E020936C00F894E0916A00F0E03D
:1007A000EE0FFF1F9F0123523F4FF90145915491D6
:1007B000A2E8B0E01B965C934E931A97F90125913D
:1007C000349113963C932E931297E0916900F0E0D8
:1007D000EE0FFF1F9F0123523F4FF90145915491A6
:1007E0001D965C934E931C97F901259134911596B3
:1007F0003C932E931497789400C1233031F52091C7
:1008000069002B3020F021502093690003C024E0C0
:1008100020936C00F894E0916900F0E0EE0FFF1F68
:100820009F0123523F4FF90145915491A2E8B0E056
:100830001D965C934E931C97F90125913491159662
:100840003C932E9314977894D8C0243009F043C079
:1008500020916900222319F02150209369002091F2
:1008600068002F3720F42F5F2093680003C025E035
:1008700020936C00F894E0916900F0E0EE0FFF1F08
:100880009F0123523F4FF90145915491A2E8B0E0F6
:100890001D965C934E931C97F90125913491159602
:1008A0003C932E931497E0916800F0E0EE0FFF1F49
:1008B0009F0123523F4FF901459154911F965C933C
:1008C0004E931E97F9012591349117963C932E93E0
:1008D0001697789492C0253031F5209168002B301E
:1008E00020F021502093680003C026E020936C0084
:1008F000F894E0916800F0E0EE0FFF1F9F01235293
:100900003F4FF90145915491A2E8B0E01F965C93E6
:100910004E931E97F9012591349117963C932E938F
:10092000169778946AC0263009F042C0209168007A
:10093000222319F021502093680020916B002F375B
:1009400020F42F5F20936B0003C027E020936C00FE
:10095000F894E0916800F0E0EE0FFF1F9F01235232
:100960003F4FF90145915491A2E8B0E01F965C9386
:100970004E931E97F9012591349117963C932E932F
:100980001697E0916B00F0E0EE0FFF1F9F012352DE
:100990003F4FF9014591549111965C934E93F901A3
:1009A0002591349119963C932E931897789425C0ED
:1009B000273019F520916B002B3020F02150209327
:1009C0006B0002C010926C00F894E0916B00F0E0B4
:1009D000EE0FFF1F9F0123523F4FF90145915491A4
:1009E000A2E8B0E011965C934E93F9012591349101
:1009F00019963C932E931897789461D3089590910B
:100A0000800092FF77C0E0E8F0E090819B7F9083C8
:100A100090916000953088F49F5F909360009330D0
:100A200089F128F4913061F09230D9F061C09430AE
:100A3000E1F1953009F44AC05BC091E09093600009
:100A4000E0E8F0E090819F7B9083908190629083BA
:100A5000959896989798C098C198C298C398C4984A
:100A600047C0E0E8F0E090819F7D9083908190689E
:100A70009083959896989798C098C198C298C39873
:100A8000C49836C0E0E8F0E090819F779083E1E879
:100A9000F0E0908191609083959896989798C0988F
:100AA000C198C298C398C49823C0E1E8F0E090814F
:100AB0009E7F908390819260908395989698979866
:100AC000C098C198C298C398C49812C0E1E8F0E0F9
:100AD00090819D7F9083E0E8F0E090819064908326
:100AE000959896989798C098C198C298C398C498BA
:100AF00090E046D38091800085FF08C0E0917700A8
:100B0000F0E0E852FF4F8491B4DB089580918000BB
:100B1000882344F4E0917600F0E0ED52FF4F849199
:100B200015DC08958091810080FF08C0E091750078
:100B3000F0E0E253FF4F849176DC089580918100CC
:100B400081FF04C080917400DBDC089580918000F7
:100B500086FF0AC0E0917300F0E0EE0FFF1FEE5336
:100B6000FF4F859194918CDD08951F920F920FB6DF
:100B70000F9211242F933F934F935F936F937F9323
:100B80008F939F93AF93BF93EF93FF9380917800E0
:100B90008530C1F018F0863041F015C08AB59BB59C
:100BA000885F9D4F9BBD8ABD0EC08091800086FFEF
:100BB00002C0F0D108C08AB59BB5885F9D4F9BBD30
:100BC0008ABD01C0E7D165D287D2B2D280918000C0
:100BD00084FF17C08091610090916200009731F00E
:100BE000019790936200809361000BC0E0E8F0E011
:100BF00080818F7E808388E293E29093620080936D
:100C00006100A895FF91EF91BF91AF919F918F9156
:100C10007F916F915F914F913F912F910F900FBEF8
:100C20000F901F9018951F920F920FB60F921124DC
:100C30002F933F934F935F936F937F938F939F93E4
:100C4000AF93BF93EF93FF938091800084FD2EC0FC
:100C5000E0E8F0E0808180618083809178008630D8
:100C600020F48F5F8093780002C01092780060912A
:100C7000780086E090E099D2959896989798C098D9
:100C8000C198C298C398C49880917800863018F0B3
:100C9000863039F00BC0E0E8F0E08081816080832D
:100CA00005C0E0E8F0E0808182608083E0E8F0E069
:100CB000808180618083FF91EF91BF91AF919F917F
:100CC0008F917F916F915F914F913F912F910F90F5
:100CD0000FBE0F901F9018951F920F920FB60F9294
:100CE00011242F933F934F935F936F937F938F9331
:100CF0009F93AF93BF93EF93FF938091800084FD08
:100D0000BAC080917800833009F466C030F4813035
:100D100061F0823009F444C0AEC0853011F108F4AE
:100D200077C0863009F489C0A6C0809177008430EE
:100D300020F48F5F8093770002C01092770060915B
:100D4000770085E090E031D2E0917700F0E0E85262
:100D5000FF4F8491E5D1E0E8F0E0808180618083FD
:100D60008AC080917300863020F48F5F8093730077
:100D700002C0109273006091730081E090E015D280
:100D8000E0917300F0E0EE0FFF1FEE53FF4F8591EF
:100D9000949195D1E0E8F0E08081806180836BC020
:100DA00080917600843020F48F5F8093760002C0BB
:100DB000109276006091760084E090E0F6D1E091A8
:100DC0007600F0E0ED52FF4F8491AAD1E0E8F0E028
:100DD0008081806180834FC080917500843020F4D1
:100DE0008F5F8093750002C010927500609175004E
:100DF00083E090E0DAD1E0917500F0E0E253FF4F3C
:100E000084918ED1E0E8F0E080818061808333C0FE
:100E100080917400833020F48F5F8093740002C04F
:100E2000109274006091740082E090E0BED1E0E81E
:100E3000F0E08081806180831EC0809172008230EA
:100E400020F48F5F8093720002C010927200609154
:100E5000720080E090E0A9D1E0917200F0E0EE0F26
:100E6000FF1FE456FF4F849190E08AD1E0E8F0E064
:100E7000808180618083FF91EF91BF91AF919F91BD
:100E80008F917F916F915F914F913F912F910F9033
:100E90000FBE0F901F901895989902C0929801C0AC
:100EA000929A999902C093980895939A089586E02A
:100EB00090E073D18093780085E090E06ED18093CC
:100EC000770084E090E069D18093760083E090E041
:100ED00064D18093750082E090E05FD180937400CC
:100EE00081E090E05AD18093730080E090E055D18A
:100EF0008093720090D9B4D9B9D97894C0E8D0E081
:100F0000CBDF888184FF02C0949A01C09498E0915D
:100F10007800F0E0E730F10598F7ED5EFF4F0994B7
:100F2000959896989798C098C198C298C398C49875
:100F3000E7CFE0917700F0E0E852FF4F849199D934
:100F4000DFCFE0917600F0E0ED52FF4F8491FED9C3
:100F5000D7CFE0917500F0E0E253FF4F849163DA60
:100F6000CFCF80917400CCDACBCFE0917300F0E06A
:100F7000EE0FFF1FEE53FF4F8591949181DBC0CFA1
:100F8000E0917200F0E0EE0FFF1FE456FF4F8491F6
:100F900036DDB6CF82B38F7182BB88B3807E88BBCB
:100FA0008AB59BB5885F9D4F9BBD8ABD20918C0003
:100FB00030918D008091790090917A00821793078B
:100FC00008F4959A20918E0030918F0080917900DD
:100FD00090917A008217930708F4969A20919000D6
:100FE000309191008091790090917A008217930757
:100FF00008F4979A209182003091830080917900C3
:1010000090917A008217930708F4C09A2091840087
:10101000309185008091790090917A008217930732
:1010200008F4C19A20918600309187008091790060
:1010300090917A008217930708F4C29A2091880051
:10104000309189008091790090917A0082179307FE
:1010500008F4C39A20918A0030918B008091790026
:1010600090917A008217930708F4C49A80917900CE
:1010700090917A008F3F21E0920729F410927A0034
:10108000109279000895019690937A0080937900E8
:1010900008958091800080FD11C080917E00909124
:1010A0007F00009731F0019790937F0080937E003E
:1010B0000895E0E8F0E080818160808308959C01DC
:1010C000F894E0E8F0E090819E7F908330937F0079
:1010D00020937E00789408958091800081FD1FC048
:1010E0008091650090916600009731F00197909390
:1010F000660080936500089580ED97E09093660008
:101100008093650080917B00882321F0815080933B
:101110007B000895E0E8F0E080818260808308959C
:10112000E0E8F0E090819D7F908380937B000895BC
:101130008091800082FD23C08091630090916400C3
:10114000009731F0019790936400809363000895B5
:1011500080ED97E0909364008093630080917C0021
:1011600090917D00009731F0019790937D008093DE
:101170007C000895E0E8F0E0808184608083089539
:101180009C01F894E0E8F0E090819B7F908330939D
:101190007D0020937C0078940895E199FECF9FBB59
:1011A0008EBBE09A99278DB30895262FE199FECF43
:1011B0009FBB8EBB2DBB0FB6F894E29AE19A0FBE8F
:0811C00001960895F894FFCF99
:0811C800012823E8FDD0070017
:00000001FF
